:0A0000000C9479000C9400000C949D
:10000A0000000C9400000C9400000C9431030C9432
:10001A0000000C9400000C9400000C9400000C9456
:10002A0000000C9400000C9400000C9400000C9446
:10003A0000000C9400000C94EC030C9400000C9447
:10004A0000000C9400000C9400000C9400000C9426
:10005A0000000C9400000C9400000C9400000102B3
:10006A000408100004100000E803506F6C6F6C75F0
:10007A002033706920526F626F740A0D004C696EEA
:10008A006520666F6C6C6F7765720A0D0025663B9A
:10009A0025663B0025643B25643B25643B25640AB1
:1000AA000D0025643B25643B25643B25643B2564A0
:1000BA003B25643B25643B25640A0D002D4E414EC9
:1000CA00000001002D4E414E00494E46000004003A
:1000DA00030070000300000384000300030384008C
:1000EA000100A903CC000000F894EE27EFBBF1E071
:1000FA00F5BFE5BF8DE0A2E0BB27ED938A95E9F74E
:10010A0080E098E0A0E0B1E0ED930197E9F7E8ED2F
:10011A00F0E085919591009761F0A591B5910590D0
:10012A001590BF01F00105900D920197E1F7FB01CF
:10013A00F0CFE0E0EEBBEFEFEDBFE8E0EEBFC0E0EE
:10014A00D3E00C942B0424971A930A931FB7F894BC
:10015A00E0910603F0910703609108037091090387
:10016A000E94D10B06B5A89B02C00F3F08F008C039
:10017A000E94D60BEF5FFF4F6F4F7F4F0E94D10B4C
:10018A001FBF0E94DB0B0E94E00BE02FF0E00E94F1
:10019A00DE0F0E94A50FE2E00E94B60FDF01CB013D
:1001AA00EAE0F0E060E070E00E941B10DBC1BA9365
:1001BA00AA932A970E94B71000E010E0E0E0EE83CD
:1001CA00EF83AE81BF8115974CF40E94E60BAE0F08
:1001DA00BF1F0E94ED0B0E94F20BF3CFE0E0EE830B
:1001EA00EF83AE81BF81159754F40E94F80BEA2B76
:1001FA000E94000CEA2BE8B90E94F20BF2CF83E4CA
:10020A008A95F1F7E0E0EE83EF83AE81BF8115971F
:10021A0064F40E94F80BE095EA230E94000CE09532
:10022A00EA23E8B90E94F20BF0CF26B18CDFE88707
:10023A00F9876A877B87083EE3E01E0770F536B1C7
:10024A00E22FE3275E2F7FDF0E94090C232FA88568
:10025A00B985EC85FD85EA1BFB0B8F01E0E0EE8397
:10026A00EF83AE81BF811597BCF4EE81FF81E85917
:10027A00FF4FE491E52369F0EE81FF81E859FF4FD2
:10028A00E491E32331F40E94E60BEA0FFB1F00839B
:10029A0011830E94F20BE5CFCECFE0E0EE83EF832D
:1002AA00AE81BF8115978CF40E94E60B0E940E0C5A
:1002BA00309741F40E94E60BAE0FBF1FE8EEF3E061
:1002CA00ED93FC930E94F20BEBCF0E94BE10629654
:1002DA0008950E94130CE8EEF3E0E315F40521F00B
:1002EA0000240514060431F433244424E8EEF3E030
:1002FA005E2E6F2E00E010E00530E0E01E07ECF401
:10030A000E94180C0E940E0C3E164F0630F40E94F2
:10031A00180CAE0FBF1F3D904C900E94180C0E9403
:10032A000E0CE515F60530F40E94180CAE0FBF1F2F
:10033A005D906C900F5F1F4FDFCF1981088184C2D7
:10034A00BA93AA930E94B910AC81BD8130DFAC8107
:10035A00BD81BFDF20E030E02530E0E03E071CF53C
:10036A00A32DB42DA519B609FD01F695E795E50D5E
:10037A00F61D8F010E941E0C0E940E0C0E171F07FD
:10038A0038F40E941E0CAE0FBF1FE1E0F0E006C079
:10039A000E941E0CAE0FBF1FE0E0F0E0ED93FC934D
:1003AA002F5F3F4FD9CF0E94C010DEC0AA93E881C9
:1003BA00E064E0937C0083E48A95F1F7E0917A00A7
:1003CA00E064E0937A00E0917A00E071E1F3E09171
:1003DA007A00E061E0937A00E0917800F091790088
:1003EA000C947106BA93AA930E94B910A5E0DEDFB5
:1003FA008F01A7E0DBDF9F010B30E1E01E0740F031
:10040A00AC81BD810E94240C1296E0E0F0E017C096
:10041A000B37E0E01E0750F4AC81BD810E94ED0B62
:10042A00AC81BD811296E0E0F0E009C0AC81BD81EB
:10043A000E94ED0BAC81BD811296E1E0F0E0ED93F4
:10044A00FC932B30E1E03E0748F0AC81BD81149665
:10045A000E94240C1696E0E0F0E019C02B37E0E089
:10046A003E0758F4AC81BD8114960E94ED0BAC8115
:10047A00BD811696E0E0F0E00AC0AC81BD81149619
:10048A000E94ED0BAC81BD811696E1E0F0E0ED93A0
:10049A00FC930E94C01068C00E94130C10E000E098
:1004AA00AD81AA233AF4EC81FD810E94AA0FEC8364
:1004BA00FD8311E0AC81BD81A030E1E0BE0724F0EC
:1004CA00EFEFF0E0EC83FD83AB81AA233AF4EA81F3
:1004DA00FB810E94AA0FEA83FB8301E0AA81BB8108
:1004EA00A030E1E0BE0724F0EFEFF0E0EA83FB83FF
:1004FA00103021F0E0E0E8BDEC8103C0EC81E8BDFA
:10050A00E0E0E7BD003029F0E0E0E093B400EA81E2
:10051A0004C0EA81E093B400E0E0E093B30022C0B3
:10052A000E94130C00E010E0EA81FB8131960E175D
:10053A001F07C4F4F801AC81BD810E942B0CFF9304
:10054A00EF930E94660A0E94300CE0E0FEEF6FEF24
:10055A0076E40E943C0FAF91BF910E9483100F5F17
:10056A001F4FE2CF19810881269608950E94370C01
:10057A00E0E0EA83EB831A930A9300E010E0EE814D
:10058A00FF8131960E171F07ECF4F801AA85BB8587
:10059A000E943E0C7F936F93FF93EF93F801A88517
:1005AA00B9850E943E0CAF91BF918F919F910E9495
:1005BA00EE0E0E94DB0B0E949E0E0E94D10B0F5F73
:1005CA001F4FDDCF0E94DB0B0E94630B0E94450C7C
:1005DA00198108812C9608950E94130C00E010E0FE
:1005EA00EA81FB8131960E171F0794F5F801AE8553
:1005FA00BF850E942B0CFF93EF93DF010E947810B6
:10060A007F936F93FF93EF930E94470CA885B98558
:10061A008A859B850E94EE0E7F936F93FF93EF93DB
:10062A00F801AC85BD850E943E0CAF91BF918F91B8
:10063A009F910E94EE0EAF91BF918F919F910E9460
:10064A009E0EAF91BF910E9483100F5F1F4FC8CFBC
:10065A00198108810C9462070A921A92FA926A9393
:10066A007A938A939A93AA93BA93EA93FA93EFB7EF
:10067A00EA9324970E94B91039B1E091A003E327C5
:10068A002E2F61DD0E944C0C78943093A003EEE685
:10069A00F0E0E491E22361F1EEE6F0E0E491E32395
:1006AA00E9F4A091A103B091A203EC81FD81EA1BB8
:1006BA00FB0B8F010538E3E01E0720F00839E8E05C
:1006CA001E0708F005C0009398031093990305C00C
:1006DA00E0E0E0939803E09399030AC00E94470C74
:1006EA00E093A103F093A2036093A3037093A4037E
:1006FA00EFE6F0E0E491E22369F1EFE6F0E0E4915D
:10070A00E323F1F4E091A503F091A603AC81BD8146
:10071A00AE1BBF0B8D010538E3E01E0720F0083938
:10072A00E8E01E0708F005C0EAE9F3E00083118358
:10073A0006C0EAE9F3E0A0E0B0E0A083B1830AC012
:10074A000E94470CE093A503F093A6036093A703C6
:10075A007093A8030E94510CE00DF11DE0939C03D5
:10076A00F0939D030E94510CDF01F001EA1BFB0B81
:10077A00E0939E03F0939F03A0919C03B0919D0385
:10078A000E94E30F0E94E00B0E94630CE0939C031B
:10079A00F0939D030E946A0C0E94E30F0E94E00BF3
:1007AA000E94630CE0939E03F0939F030E94C01083
:1007BA002896E991EFBFF991E991B991A991999197
:1007CA00899179916991F9901990099018956A938C
:1007DA007A93AA93BA93EA93FA93EFB7EA93A6E0C5
:1007EA00B3E00E947E10EF5FFF4F6F4F7F4F0E9472
:1007FA008810E991EFBFF991E991B991A99179919D
:10080A00699118952497A6E0D1DD66277727A8E88D
:10081A00B3E180E090E00E94E80F0E946F0C0E9412
:10082A009210EAE00E94C20F0E946F0C0E94720CA2
:10083A00A3E0B0E080E090E00E94E80F0E94D30FAE
:10084A000E946F0CE881F981249608952197E1E0CE
:10085A00E883E0E8E0936100E0E0E0936100E8E02B
:10086A00E4B9E2E3E5B9E0E0E7B9E8B9E8EEEAB904
:10087A00E4E1EBB9E3EFE4BDE2E0E5BDE0E0E6BDCB
:10088A00E7BDE8BDE093B600E3EFE093B000E2E035
:10089A00E093B100E0E0E093B200E093B300E093AC
:1008AA00B400E1E0E0936E00E0E0E0936900EDBBA4
:1008BA00E4E0E0936800E4E1E0936D00E4E0EBBB80
:1008CA00E0E0E093C000E8E1E093C100E6E0E093F5
:1008DA00C200E0E0E093C500EAE0E093C400E0E093
:1008EA00E0937E00E0E4E0937C00E5E8E0937A00A0
:1008FA00E0E0E0937B0078940E94750C11DE0E9480
:10090A007C0C0EDE0E94830C0BDE0E948A0C08DE31
:10091A00E4E5F3E0A1E0B0E0A083B183E6E9F3E027
:10092A00A083B183E4E7F0E00E94910CE7E8F0E0ED
:10093A000E94910C1C99FECF1C9BFECF5F9AA8EED9
:10094A00B3E00E94E20D5F98AAE4B3E0F9DCAEE8F6
:10095A00B3E048DD0E94980C0E94750C07DEE09314
:10096A003A03F0933B0360933C0370933D030E9468
:10097A00980C0E947C0CFADDE0933E03F0933F034F
:10098A0060934003709341030E949D0C0E94830C64
:10099A00EDDDE0937E03F0937F0360938003709311
:1009AA0081030E949D0C0E948A0CE0DDE093820381
:1009BA00F09383036093840370938503E881F0E0E6
:1009CA00E130A0E0FA0709F067C00E94A20C0E9479
:1009DA00A90C0230E0E01E0708F055C0A2E4B3E01B
:1009EA00F8010E942B0CFF93EF930E94B00C0E9417
:1009FA00300C0E94B60C7F936F93FF93EF93AAE398
:100A0A00B3E0F8010E943E0CAF91BF918F919F9184
:100A1A000E94BD0CAF91BF910E9483100E94C20C2C
:100A2A000E94C60C11F008F005C00E94C20C0E9478
:100A3A00CF0CA8F4A8E1A09FF001A19FF00DE65FFA
:100A4A00FC4FFA93EA930E94980C0E94D80C0E94D9
:100A5A00C20C0E949C10A5E0B0E0BEDD02C02F5F70
:100A6A003F4FE7E9F0E0FA93EA93AAE3B3E0F8012B
:100A7A000E943E0C0E949C100E94C20C0E94DF0C35
:100A8A000F5F1F4FA6CFA0E0B3E00E94E60C11F45F
:100A9A005F9A01C05F98A1C0E330A0E0FA0709F0AD
:100AAA0067C00E94A20C0E94A90C0230E0E01E0757
:100ABA0008F055C0A6E8B3E0F8010E942B0CFF939A
:100ACA00EF930E94B00C0E94300C0E94B60C7F93E8
:100ADA006F93FF93EF93AEE7B3E0F8010E943E0CE9
:100AEA00AF91BF918F919F910E94BD0CAF91BF9121
:100AFA000E9483100E94ED0C0E94C60C11F008F0AF
:100B0A0005C00E94ED0C0E94CF0CA8F4A4E1A09F9E
:100B1A00F001A19FF00DEA5AFC4FFA93EA930E9462
:100B2A009D0C0E94D80C0E94ED0C0E949C10A4E01F
:100B3A00B0E052DD02C02F5F3F4FE7E9F0E0FA93E1
:100B4A00EA93AEE7B3E0F8010E943E0C0E949C10C3
:100B5A000E94ED0C0E94DF0C0F5F1F4FA6CFA3E08F
:100B6A00B3E00E94E60C11F45F9A01C05F9835C0A9
:100B7A00309799F4A0913A03B0913B0380913C03DA
:100B8A0090913D030E94F10CE0913E03F0913F03E6
:100B9A00609140037091410316C0E230A0E0FA0769
:100BAA00E1F4A0917E03B0917F038091800390913C
:100BBA0081030E94F10CE0918203F091830360911A
:100BCA00840370918503A0E0B0E080E893E40E947A
:100BDA00EE0E0E942D0EDF015FDC14DEAF01EEE99E
:100BEA00F0E0FA93EA93E0918E03F0918F030E946A
:100BFA00FC0CE0919003F09191030E94FC0CE091AF
:100C0A009203F09193030E94FC0CE0919403F091FB
:100C1A0095030E94FC0C80E10E947F096296ECEA2F
:100C2A00F0E0FA93EA93E0914A03F0914B030E94B1
:100C3A00FC0CE0914C03F0914D030E94FC0CE091F6
:100C4A004E03F0914F030E94FC0CE0915003F09187
:100C5A0051030E94FC0CE0915203F09153030E944D
:100C6A00FC0CE0919C03F0919D030E94DE0F0E9410
:100C7A009C10E0919E03F0919F030E94DE0F0E9458
:100C8A009C10FA010E94FC0C80E234D3A2961999B6
:100C9A000CC0199BFECFE881E03029F0A881A13071
:100CAA0011F4E0E001C0E1E0E8831C990BC01C9B51
:100CBA00FECFA881A23021F0A33011F4E2E001C0F6
:100CCA00E3E0E88341CEFFCFAA93E091C000E0724F
:100CDA00E1F3E881E093C60021960895BA93AA93B6
:100CEA001A93A981BA81ED91A983BA831E2FE030A4
:100CFA0019F0A12FE9DFF5CFAAE0E6DF18810BC0D2
:100D0A00BA93AA93AA81E0DFA881B981ED91FD91F6
:100D1A003196FE93EE93239608950E94370CE0E8ED
:100D2A00EA83EFE3EB830E94B910EE85FF85EF3F7C
:100D3A00AFEFFA0749F4E885F985FA93EA93A6EC46
:100D4A00B0E00E94AB0BB7C0EF3FAFE7FA0749F438
:100D5A00E885F985FA93EA93A7ECB0E00E94AB0B19
:100D6A00AAC0AB85A73010F0E6E0EB871B85E12F20
:100D7A001150E03019F00E94010DF9CFEC85FD8584
:100D8A006E857F850E94B31021F430E00E94010D28
:100D9A002DC03B850E940C0D09F008F40BC00E947F
:100DAA00010D0E940C0D28F00E94140D0E94190DCD
:100DBA00F8CF0DC00E940C0D40F40E94140D0E9441
:100DCA00220D0E94090C3150F5CF0E94010DEC85CD
:100DDA00FD856E857F850E94290D0E94090C0E945F
:100DEA000C0D20F00E94140D0E94190D10E0EB85E5
:100DFA00E117A8F1AC81BD818E819F810E94300DDF
:100E0A000E94290DDF01CB010E94B40A0E944C0CFA
:100E1A000E94470C0E94140D0E943C0F0E942B0E48
:100E2A000E2F0E94370D0E943E0DFF276627772757
:100E3A000E94640EAC81BD818E819F810E94EE0E5C
:100E4A000E94140D0E94BD0C0E94090CE12F1F5F25
:100E5A00E03069F60E94370DEEE2EC93C8CF0E94AB
:100E6A00430D3197AA85A08330302CF43195A8859B
:100E7A00B985EDE203C0A885B985EBE2EC930E943F
:100E8A00430D0E94430D3197BF01A32FEAE00E9450
:100E9A001610E05DDB01EC930E94430D3197BF0110
:100EAA00A32FEAE00E944510E05DDB01EC93A885E0
:100EBA00B985E0E0EC930E94C01060960895BA9359
:100ECA00AA93EF9761970E94B71010E0FE01E85AC3
:100EDA00FF4F0190F081E02DE887F987FE01EA5A79
:100EEA00FF4F0190F081E02DEE83FF83AE81BF8139
:100EFA000E94ED0BDE01A45ABF4FED91FD91319690
:100F0A00FE93EE933197E4912E2FE03009F4E9C174
:100F1A00E12FE03039F4253211F411E002C00E94C9
:100F2A00490DDEC1E130C1F4253219F40E94490DA0
:100F3A00D6C112E0E0E0ED8B00E02D3211F401E0C1
:100F4A00CFC12B3219F4EBE2ED8BCAC1203219F46E
:100F5A00E0E2ED8BC5C102C0E23039F450E013E0A3
:100F6A00203311F40068BCC102C0E33091F420338D
:100F7A0010F02A3308F007C0AAE05A9F502DE22F3A
:100F8A00E0535E0FADC140E02E3211F414E0A8C167
:100F9A000FC0E43099F4203310F02A3308F008C067
:100FAA000062AAE04A9F402DE22FE0534E0F98C1FB
:100FBA002C3619F4026015E093C103C0E53009F03C
:100FCA008FC1E22FE33659F40E94500D0E94570D4B
:100FDA000E94500DA481AA930E945E0D80C1E5343F
:100FEA0011F0E53609F403C0E63609F048C0FE01FF
:100FFA007696EE87FF870E94640D0E9478100E9401
:10100A006B0D0E94700DAD85AA2332F0AD89AB320B
:10101A0059F0A03281F017C00E94720D0E94F80D9B
:10102A000E946B0DEDE2ED8B07FF05C0ED89EA9397
:10103A000E945E0D08C0EE85FF853196EE87FF8718
:10104A003197AD89A08305FF46E0263651F40E9408
:10105A00720D0E949C104A93AB89BC890E94A40914
:10106A0009C00E94720D0E949C104A932A93AC896F
:10107A00BD8953DEFE0176960E94770D1EC0E337C6
:10108A0039F40E94700D0E947F0D0E94770D0EC0E8
:10109A00E037C1F40E94700D0E947F0DEE87FF8732
:1010AA00AE85BF850E94C40B1E2F08600F774030A3
:1010BA0011F0411708F001C0142F40E0E0E0EC8B7A
:1010CA0030E06DC0E43611F0E93611F4046002C074
:1010DA00E537A1F4EAE0EC8B01FF08C0E0E0FAECA6
:1010EA006AE97BE30E94840D1AE022C0E0E1F7E29C
:1010FA0060E070E00E94840D15E01AC0E83511F432
:10110A00086003C0E83709F0EAC0E0E1EC8B01FFB0
:10111A0008C0E0E0F0E060E070E10E94840D18E0B1
:10112A0007C0E0E0F0E160E070E00E94840D14E0A6
:10113A00403011F00F7701C041E001FF08C00E9462
:10114A00700D0E94640D14960E9478100FC002FF61
:10115A0007C00E94700D0E947F0D0E94DE0F06C01C
:10116A000E94700D0E947F0D66277727EA87FB870A
:10117A006C877D8702FF12C0AD85AA2342F40E94C4
:10118A00720D0E94AE0F0E946B0DEDE2ED8BED89A0
:10119A00E03019F01F5F4F5F01C00B7F342F00FD55
:1011AA0014C0151710F4351708F00FC007FF08C050
:1011BA0002FF04C00B7F2D89115001C020E301C03A
:1011CA0020E20E94490D5150ECCF141790F40061AF
:1011DA0002FF06C00E94890D09F05150115041507A
:1011EA00E0E3EA930E945E0D503009F051504150FD
:1011FA00ECCF312FEC89E030B9F43030A1F003FFA5
:10120A0006C0EE85FF852591EE87FF8705C0AE856E
:10121A00BF852D91AE87BF870E94490D503009F0D6
:10122A0051503150EACF51C00E949B0D0E941B10B1
:10123A002E2F2A3030F003FF02C0295C01C0295A40
:10124A0001C0205D04FD21C0213360F4A889B98959
:10125A008A899B89A130E0E0BE07E0E08E07E0E0E2
:10126A009E0709F40BC0431740F4531710F000FF10
:10127A0001C010C020E207FF08C020E3006102FF9E
:10128A0004C00E94890D09F051500E94490D503046
:10129A0009F0515031500E949B0D0E9451100E943A
:1012AA006B0DEC89A889B9898A899B89FF276627EA
:1012BA0077270E941B100E94840DE889F9896A89A0
:1012CA007B890E94B31009F0AFCF00FF08C05030ED
:1012DA0031F05150E0E2EA930E945E0DF8CF10E03F
:1012EA0009CEAE81BF810E9474100E94BE10EF9693
:1012FA006F960895FF92F82E26971A930A93DE01A5
:10130A0014960E94A10F8D01E0E0EC83ED83EE8339
:10131A00EF83DE0118960E94A10F0E947410FA93BF
:10132A00EA931A930A93E5E8F6E0FA93EA93DE0160
:10133A001896C5DD198108812896FF9008950E94A4
:10134A00370CE0E0EA83EFE3EB831A930A93EB8529
:10135A00FC85EF3FAFEFFA0739F40E94A40DAEEC1B
:10136A00B0E00E94AB0BA9C0EF3FAFE7FA0739F430
:10137A000E94A40DAFECB0E00E94AB0B9EC0AC85FE
:10138A00AA2362F4E985FA856B857C850E94F80DAB
:10139A000E94A90D0E94AE0DEDE2EC93A885A7303C
:1013AA0010F0E6E0E8871885E12F1150E03039F0B7
:1013BA000E94DB0B0E94300D0E94D10BF5CF0E94D8
:1013CA00B50D0E949E0E0E94A90D10E0E0E0F0E02B
:1013DA0060E87FE30E94D10B0E94B50D0E94810F45
:1013EA0088F00E94DB0B0E94220D0E94D10B1F5F26
:1013FA00173238F00E94A40DA3EDB0E00E94AB0BA7
:10140A005CC0EACF103029F40E94AE0DE0E3EC9301
:10141A0029C0E12F1150E03029F10E94DB0B0E9414
:10142A00300D0E94290DDF01CB010E94B40A0E94EF
:10143A00450C0E94BB0D0E943C0F0E942B0E0E2FE2
:10144A000E94AE0D0E943E0DF0E00E94DB0B0E944E
:10145A00C00D0E94EE0E0E94BB0D0E94BD0C0E94A0
:10146A00A90DD7CFE885E03021F10E94AE0DEEE25A
:10147A00EC93E885E150E887EF5FD9F00E94BB0D55
:10148A000E94220D0E94A90DE985FA856B857C854B
:10149A000E942B0E0E2F0E94AE0D0E943E0DF0E010
:1014AA000E94BB0D0E94C00D0E94BD0C0E94A90D96
:1014BA00E0CFAE81BF81E0E0EC93198108812D96DF
:1014CA000895E091A903F091AA036091AB0370918A
:1014DA00AC03ADE6BEE486EC91E40E94E80FEE5957
:1014EA00F8486F4F7F4FE093A903F093AA036093E4
:1014FA00AB037093AC03FB01FF7708950E94A11020
:10150A007B816A81F981E88177FB770F67FD7160DA
:10151A00972F9E5781F078F0983190F4AA27BB272D
:10152A00882708948795B795A7959A95D1F7EA23BE
:10153A00FB23682305C0E8947727EE27FF27662751
:10154A006F77769508F4606877F9A991B9918991CE
:10155A009991EA17FB076807790797FB08950E9494
:10156A00A1100E9492100E94830A0E946F0C19F423
:10157A000E94720C09C0E6F70E94720CA0E0B0E06B
:10158A0080E89FE30E94970E249608950E94A11076
:10159A0028971A930A930E94C50DE0E5FCEA6EEAC1
:1015AA0072EC0E94810F28F4E0E0F0E060E070E065
:1015BA0081C00E94720D0E94B31029F4E0E0F0E0AD
:1015CA0060E87FE377C00E94C50DE8E1F2E761EBCE
:1015DA0072E40E94810F09F008F405C0EFEFFFEFF3
:1015EA006FE77FE767C00E94C50DEBE3FAEA68EB95
:1015FA007FE30E94EE0E0E946B0D0E94C50DAFDFC5
:10160A000E942D0E8F010E94C50D0E94C00D0E94DE
:10161A00BD0CDF01CB01E0E0F0E060E07FE30E9477
:10162A00BD0CEE83FF83688779870E94CA0D0E94EA
:10163A00450CADE6BCE48CE69DE30E94EE0EA6EAFC
:10164A00B3EE86EE90E40E949E0E0E94CA0DEE83CF
:10165A00FF83688779870E94D60BA8E2BDE886EAED
:10166A0091E40E949E0E0E94D10BEE81FF81688553
:10167A0079850E94DB0B0E949E0EA3EFB4E085EBF6
:10168A009FE30E94EE0E7F936F93FF93EF93AE81D9
:10169A00BF81888599850E94D60B0E94970EAF91CB
:1016AA00BF918F919F910E943C0F0E949C10D8017C
:1016BA000E94EC0D198108812E9608950E94A110AE
:1016CA0024971A9310E0A885AA234AF40E94D10D00
:1016DA000E94F80DED83FE836F83788711E0AD8158
:1016EA00BE818F81988552DFED83FE836F83788771
:1016FA000E94D10DA0E0B0E080E89FE30E94D60DE1
:10170A00A981BA818B819C810E94D10D0E94970E7A
:10171A007F936F93FF93EF930E94DD0DAD81BE819E
:10172A008F8198850E949E0EAF91BF918F919F9154
:10173A000E94D60D103029F00E94DD0D0E94F80D8E
:10174A0002C00E94DD0D188129960895BA93AA93C2
:10175A00E991F991A991B991CD0105900D920020D5
:10176A00E1F7FC010895BA93AA93A991B991EE27DA
:10177A00FF276D91662311F03196FBCF0895BA9336
:10178A00AA93AA27BB27E991F9910590002011F0A5
:10179A001196FBCFFD010895EA83FB836C837D8359
:1017AA000895EA81FB816C817D810895AA81BB81BC
:1017BA008C819D810895E8E00E94B60FDF01CB017C
:1017CA000895EE81FF81A889B989EE0FFF1F089558
:1017DA00E0E0F0E0ED93FC930895EE81FF8131960D
:1017EA00EE83FF830895E7B1AE2FEE81FF81E859BA
:1017FA00FF4FE4910895E7B9E8B1AE2FEE81FF817A
:10180A00E859FF4FE4910895EC87FD876E877F873B
:10181A000895AE0FBF1F0E9474100895BA93AA9339
:10182A001A930A930895F801AA81BB81EE0FFF1F4C
:10183A000895F901AC81BD81EE0FFF1F0895E1E023
:10184A00F0E0ED93FC93AC81BD8108950E94CE0F28
:10185A00EA0FFB1F08950E94DE0F0E94640EDF014B
:10186A00CB010895BA93AA932497E0E0E883E98329
:10187A0008950E94CE0FAE0FBF1F0E9478100895E0
:10188A008BDF8FCFEC81FD816E817F810895EC83A0
:10189A00FD836E837F830895E0919A03F0919B0301
:1018AA00AEEDB5E0AE1BBF0B0D01A0919803B09150
:1018BA009903EEEDF5E0EA1BFB0B0895E8E8FAE080
:1018CA0060E070E00E9440100895A0919E03B091DC
:1018DA009F0308950E94971008950E948D100895FD
:1018EA00EAE0F3E0FA93EA93A5E0B0E00895E2E2D1
:1018FA00F3E0FA93EA93A5E0B0E00895E6E5F3E0B1
:10190A00FA93EA93A4E0B0E00895EAE6F3E0FA93E2
:10191A00EA93A4E0B0E00895FA93EA9380E00E9483
:10192A007F0922960895EAE4F3E0FA93EA93089588
:10193A00EEE8F3E0FA93EA930895E0919C03F091BC
:10194A009D03FA93EA93C1CF0E94510200E010E08E
:10195A0020E030E00895F801ACE9B3E0EE0FFF1F94
:10196A0058CFE0E0F0E060E873E40E943C0F08958D
:10197A000E94A6100E94970E0895A2E4B3E0F8010F
:10198A0078CFDF01CB01EFE6F2E163E87AE30E9468
:10199A00810F0895DF01CB01EFE6F2E163E87AEB0C
:1019AA000E94810F0895EDECFCEC6CEC7DE30E9443
:1019BA009C1008950E949C1088E00E947F092A9634
:1019CA0008950E947306E2E0F0E0E217F307089533
:1019DA00A6E8B3E0F8014DCFE0E0F0E060E873E498
:1019EA000E94EE0E0E942D0EFA93EA93089566273E
:1019FA0077270E949C100895AC81BD818E819F81BA
:101A0A00E0E0F0E060E271E40E94EE0E40CF3ADFDF
:101A1A00AC85BD858E859F850E94810F0895AC8512
:101A2A00BD858E859F850895EDECFCEC6CEC7DE31D
:101A3A000E94EE0EE9DE3F5F0895E0E0F0E060E22A
:101A4A0071E40E94EE0E0895A0E0B0E080E09FE30A
:101A5A000E949E0E0895EDECFCEC6CEC7DE30E9476
:101A6A00EE0E0895A885B9851196A887B9871197AA
:101A7A000895E02FE05DEC93E02F0895E885F9855D
:101A8A003196E887F98708952A93AF81B885E98561
:101A9A00FA8509950895FE01E65AFF4F0190F081F3
:101AAA00E02D08953497DE01A65ABF4FED93FC93BB
:101ABA000895AF81B885E985FA8509950895DE010B
:101ACA00A65ABF4F0D90BC91A02D0895EA87FB87B7
:101ADA006C877D870895DFDFE5CFEA85FB856C8516
:101AEA007D850895EE87FF87AE85BF850E94B80B76
:101AFA001E2F0895E4DF14960E9474100895E88B4F
:101B0A00F98B6A8B7B8B08950B7FED89EA93DE0153
:101B1A00A95ABF4F0D90BC91A02DFE01E75AFF4F65
:101B2A000190F081E02D099550300895E889F989EE
:101B3A006A897B89AA85BB858C859D850895EE81F6
:101B4A00FF81FA93EA930895E987FA876B877C877E
:101B5A000895AE81BF811196AE83BF831197089510
:101B6A0020DEA985BA858B859C850895A985BA85C5
:101B7A008B859C8508950E94DE0F0E94640E08954D
:101B8A00AA85BB858C859D850895AE81BF81888590
:101B9A0099850E94EE0E0895ED81FE816F81788508
:101BAA0008950E943C0FE983FA836B837C8308952E
:101BBA00E981FA816B817C810895109639F088E871
:101BCA0093E10197F1F7A8951197C9F70895E9915B
:101BDA00F9916991799177FB660F771F7A0F76955C
:101BEA0067950EF0089530976040704009F070587C
:101BFA000895552342F4503811F4E0FF04C0319699
:101C0A00691F791F6BF050E8572711F45F93CFC013
:101C1A005F3F31F0660F000C57956795752F089551
:101C2A005F9300200AF0CFC0C8C050E8192E1522D1
:101C3A00880F991F9527550F879550E8072E05227B
:101C4A00660F771F7527550F67950895689401C029
:101C5A00E8945F93F2DF703818F07F3F08F4A7C06A
:101C6A0056E1571BAAF4519558300EF4593030F00A
:101C7A00EFEFFFEF6FEF7FE777F91AC0772755236A
:101C8A00B9F0EE0FFF1F661F771F5A95D1F710C0E4
:101C9A007727583028F0EF2FF62F672F5850F9CFB3
:101CAA00552331F076956795F795E7955A95D1F7CB
:101CBA0000200AF44ED15F910895689401C0E89417
:101CCA00309760407040B1F0002426F0772312F478
:101CDA0000943FD1172E7EE1112032F07A95EE0F53
:101CEA00FF1F661F111CF9CFEF2FF62F612D5F938F
:101CFA008ADF5F9108954F93AF01FD01DA01AB01CD
:101D0A00BC01CA01402D012C142E4F910895EA0FEF
:101D1A00FB1F681F0895E095F0956095EF5FFF4FF0
:101D2A006F4F08955F9381DF903871F150E815265F
:101D3A0004C05F937ADF903839F1703821F1572F58
:101D4A00591B2BF112F4D7DFFACF583118F0AA2712
:101D5A00BB278827583028F0AB2FB82F8827585030
:101D6A00F9CF552329F08695B795A7955A95D9F7AE
:101D7A00502D512572F0CBDF38F46795F795E7952A
:101D8A00739513F420C0B7DF3EDF5F910895D8F74B
:101D9A00FBCFEA1BFB0B680B51F010F40094BBDF7E
:101DAA00662392F3EE0FFF1F661F7A95CBF7EE2795
:101DBA00FF27662777275F910895EFEFFFEF6FE719
:101DCA007FEF5F910895EFEFFFEF6FE77FE75F9196
:101DDA0008955F932ADF703851F3903841F3012454
:101DEA000894791F23F41CF300203AF3ECCF0F92E6
:101DFA001F932F933F934F93112722279927689F69
:101E0A00A0018F9F302D410D591F6B9F300D411D31
:101E1A00591F8E9F27D0BF9F25D06A9F23D0BE9F70
:101E2A001DD0AF9F1BD0AE9F110D291F391F491F0F
:101E3A00591FE32FF42F652F522F4F913F912F9166
:101E4A001F910F9066232AF0550FEE1FFF1F661F82
:101E5A0002C073954BF2CDDE5F910895100D211DDE
:101E6A00391F02C0200D311D491F591F08955F9364
:101E7A00DCDE703821F411200AF49FCFA4CF903809
:101E8A0009F495CF01240894970B1BF4D4F300208E
:101E9A00F3CF792F1F932F933F934F931124112739
:101EAA00222733274427552790E2AE17BF07860714
:101EBA00410730F0AE1BBF0B860B410B089401C0E3
:101ECA008894551F221F331F111CAA1FBB1F881F6E
:101EDA00441F9A9551F7F901612D4F913F912F9126
:101EEA001F91662332F0550FEE1FFF1F661F7A956A
:101EFA0043F27FDE5F91089599239AF0772342F0A7
:101F0A00971748F029F4AE17BF07860720F031F07B
:101F1A0098948894089598940894089518948894A5
:101F2A0008957723C2F7971798F3A9F7EA17FB07DB
:101F3A00680788F399F3ECCF0024AF0DB01D08951C
:101F4A00AE0FBF1F861F971F0895F195E195F040C8
:101F5A000895F09560957095E195FF4F6F4F7F4F0B
:101F6A000895EE230E2EFD01BC0131F0EE0FFF1F86
:101F7A00661F771F0A94D1F70895EE230E2EFD01EE
:101F8A00BC0131F076956795F795E7950A94D1F7F4
:101F9A000895EE0FFF1FEE0FFF1F089576956795C0
:101FAA00F795E7950895FE2FFF0FFF0B6F2F7F2FF1
:101FBA0008956F2F660F660B762F08958B2F880F63
:101FCA00880B982F08957A9F702D6B9F700DF89F3C
:101FDA00700DE99F700D6A9F602D710DFB9F600D5A
:101FEA00711DE89F600D711D8827FA9FF02D610D04
:101FFA00781FEB9FF00D611D781FEA9FE02DF10D10
:10200A00681F781F0895002498E0AA0F001C0E1A72
:10201A0010F40E0E01C0A1609A95B9F7EA2FA02D0F
:10202A0008953ED0F0DF0EF4E19508953F934F9363
:10203A005F93002411244427552730E2AA0FBB1FBF
:10204A00881F991F001C111C441F551F0E1A1F0AB6
:10205A00460B570B28F40E0E1F1E461F571F01C0B2
:10206A00A1603A9559F7FD01BC01D001CA015F91FF
:10207A004F913F91089520D0D9DF0EF46ADF089579
:10208A00E894A7FF02C0A1956894E7FDE195BBDF3C
:10209A00EA2F0EF4E1950895C9DFFD01BC01089508
:1020AA00E894E7FF02C0E1956894A7FF04C0A195F0
:1020BA0000F8039400FA0895E89477FF02C049DF14
:1020CA00689497FF0BC00024A095B09580959095D1
:1020DA001196801D901D00F8039400FA0895ED9161
:1020EA00FC9111970895ED91FD916D917C91139753
:1020FA000895ED91FD916D917D910895ED93FD9374
:10210A006D937C9308957E936E93FE93EE93089558
:10211A00E881F9816A817B810895A881B9818A81E0
:10212A009B810895E883F9836A837B8308957A9370
:10213A006A93FA93EA9308959A938A93BA93AA931D
:10214A000895182E862F612D192E972F712D1B2E6B
:10215A00BF2FF12D1A2EAE2FE12D08953097604032
:10216A00704008955A934A933A932A931A930A937A
:10217A0008955D814C813B812A81198108810895E6
:00000001FF
